{
  "contractName": "FaucetV2",
  "abi": [
    {
      "inputs": [
        {
          "internalType": "address",
          "name": "_agixTokenAddress",
          "type": "address"
        },
        {
          "internalType": "address",
          "name": "_rejuveTokenAddress",
          "type": "address"
        }
      ],
      "stateMutability": "nonpayable",
      "type": "constructor"
    },
    {
      "anonymous": false,
      "inputs": [
        {
          "indexed": true,
          "internalType": "address",
          "name": "to",
          "type": "address"
        },
        {
          "indexed": true,
          "internalType": "uint256",
          "name": "amount",
          "type": "uint256"
        }
      ],
      "name": "Distribution",
      "type": "event"
    },
    {
      "anonymous": false,
      "inputs": [
        {
          "indexed": true,
          "internalType": "address",
          "name": "previousOwner",
          "type": "address"
        },
        {
          "indexed": true,
          "internalType": "address",
          "name": "newOwner",
          "type": "address"
        }
      ],
      "name": "OwnershipTransferred",
      "type": "event"
    },
    {
      "inputs": [],
      "name": "agixMaxSupply",
      "outputs": [
        {
          "internalType": "uint256",
          "name": "",
          "type": "uint256"
        }
      ],
      "stateMutability": "view",
      "type": "function",
      "constant": true
    },
    {
      "inputs": [],
      "name": "agixToken",
      "outputs": [
        {
          "internalType": "contract IERC20",
          "name": "",
          "type": "address"
        }
      ],
      "stateMutability": "view",
      "type": "function",
      "constant": true
    },
    {
      "inputs": [],
      "name": "agixWithdrawalAmount",
      "outputs": [
        {
          "internalType": "uint256",
          "name": "",
          "type": "uint256"
        }
      ],
      "stateMutability": "view",
      "type": "function",
      "constant": true
    },
    {
      "inputs": [],
      "name": "lockTime",
      "outputs": [
        {
          "internalType": "uint256",
          "name": "",
          "type": "uint256"
        }
      ],
      "stateMutability": "view",
      "type": "function",
      "constant": true
    },
    {
      "inputs": [],
      "name": "owner",
      "outputs": [
        {
          "internalType": "address",
          "name": "",
          "type": "address"
        }
      ],
      "stateMutability": "view",
      "type": "function",
      "constant": true
    },
    {
      "inputs": [],
      "name": "rejuveMaxSupply",
      "outputs": [
        {
          "internalType": "uint256",
          "name": "",
          "type": "uint256"
        }
      ],
      "stateMutability": "view",
      "type": "function",
      "constant": true
    },
    {
      "inputs": [],
      "name": "rejuveToken",
      "outputs": [
        {
          "internalType": "contract IERC20",
          "name": "",
          "type": "address"
        }
      ],
      "stateMutability": "view",
      "type": "function",
      "constant": true
    },
    {
      "inputs": [],
      "name": "rejuveWithdrawalAmount",
      "outputs": [
        {
          "internalType": "uint256",
          "name": "",
          "type": "uint256"
        }
      ],
      "stateMutability": "view",
      "type": "function",
      "constant": true
    },
    {
      "inputs": [],
      "name": "renounceOwnership",
      "outputs": [],
      "stateMutability": "nonpayable",
      "type": "function"
    },
    {
      "inputs": [
        {
          "internalType": "address",
          "name": "newOwner",
          "type": "address"
        }
      ],
      "name": "transferOwnership",
      "outputs": [],
      "stateMutability": "nonpayable",
      "type": "function"
    },
    {
      "inputs": [
        {
          "internalType": "uint8",
          "name": "_tokenId",
          "type": "uint8"
        }
      ],
      "name": "requestTokens",
      "outputs": [],
      "stateMutability": "nonpayable",
      "type": "function"
    },
    {
      "inputs": [
        {
          "internalType": "uint256",
          "name": "amount",
          "type": "uint256"
        }
      ],
      "name": "setWithdrawalAmount",
      "outputs": [],
      "stateMutability": "nonpayable",
      "type": "function"
    },
    {
      "inputs": [
        {
          "internalType": "uint8",
          "name": "amount",
          "type": "uint8"
        }
      ],
      "name": "setLockTime",
      "outputs": [],
      "stateMutability": "nonpayable",
      "type": "function"
    }
  ],
  "bytecode": "0x608060405264012a05f2006007556302faf080600855610e106009553480156200002857600080fd5b50604051620018053803806200180583398181016040528101906200004e919062000293565b6200006e620000626200015d60201b60201c565b6200016560201b60201c565b6001808190555033600260006101000a81548173ffffffffffffffffffffffffffffffffffffffff021916908373ffffffffffffffffffffffffffffffffffffffff16021790555067016345785d8a000060038190555066038d7ea4c6800060048190555081600560006101000a81548173ffffffffffffffffffffffffffffffffffffffff021916908373ffffffffffffffffffffffffffffffffffffffff16021790555080600660006101000a81548173ffffffffffffffffffffffffffffffffffffffff021916908373ffffffffffffffffffffffffffffffffffffffff1602179055505050620002da565b600033905090565b60008060009054906101000a900473ffffffffffffffffffffffffffffffffffffffff169050816000806101000a81548173ffffffffffffffffffffffffffffffffffffffff021916908373ffffffffffffffffffffffffffffffffffffffff1602179055508173ffffffffffffffffffffffffffffffffffffffff168173ffffffffffffffffffffffffffffffffffffffff167f8be0079c531659141344cd1fd0a4f28419497f9722a3daafe3b4186f6b6457e060405160405180910390a35050565b600080fd5b600073ffffffffffffffffffffffffffffffffffffffff82169050919050565b60006200025b826200022e565b9050919050565b6200026d816200024e565b81146200027957600080fd5b50565b6000815190506200028d8162000262565b92915050565b60008060408385031215620002ad57620002ac62000229565b5b6000620002bd858286016200027c565b9250506020620002d0858286016200027c565b9150509250929050565b61151b80620002ea6000396000f3fe608060405234801561001057600080fd5b50600436106100cf5760003560e01c8063715018a61161008c578063d4b511c111610066578063d4b511c1146101ca578063ed8bce12146101e8578063f2fde38b14610204578063f9d180db14610220576100cf565b8063715018a6146101865780638da5cb5b14610190578063ca71935d146101ae576100cf565b80630468ce60146100d45780630d668087146100f257806313f109f914610110578063168ee33a1461012e57806323d52bc21461014a57806344e6f6bb14610168575b600080fd5b6100dc61023e565b6040516100e99190610c37565b60405180910390f35b6100fa610244565b6040516101079190610c37565b60405180910390f35b61011861024a565b6040516101259190610c37565b60405180910390f35b61014860048036038101906101439190610c83565b610250565b005b610152610286565b60405161015f9190610d2f565b60405180910390f35b6101706102ac565b60405161017d9190610d2f565b60405180910390f35b61018e6102d2565b005b6101986102e6565b6040516101a59190610d6b565b60405180910390f35b6101c860048036038101906101c39190610dbf565b61030f565b005b6101d2610335565b6040516101df9190610c37565b60405180910390f35b61020260048036038101906101fd9190610dbf565b61033b565b005b61021e60048036038101906102199190610e18565b6109f1565b005b610228610a75565b6040516102359190610c37565b60405180910390f35b60035481565b60095481565b60075481565b610258610a7b565b6305f5e100816102689190610e74565b600781905550620f42408161027d9190610e74565b60088190555050565b600560009054906101000a900473ffffffffffffffffffffffffffffffffffffffff1681565b600660009054906101000a900473ffffffffffffffffffffffffffffffffffffffff1681565b6102da610a7b565b6102e46000610af9565b565b60008060009054906101000a900473ffffffffffffffffffffffffffffffffffffffff16905090565b610317610a7b565b610e108160ff166103289190610edc565b61ffff1660098190555050565b60045481565b610343610bbd565b60008160ff161480610358575060018160ff16145b610397576040517f08c379a000000000000000000000000000000000000000000000000000000000815260040161038e90610f9b565b60405180910390fd5b600073ffffffffffffffffffffffffffffffffffffffff163373ffffffffffffffffffffffffffffffffffffffff161415610407576040517f08c379a00000000000000000000000000000000000000000000000000000000081526004016103fe9061102d565b60405180910390fd5b600354600754600560009054906101000a900473ffffffffffffffffffffffffffffffffffffffff1673ffffffffffffffffffffffffffffffffffffffff166318160ddd6040518163ffffffff1660e01b815260040160206040518083038186803b15801561047557600080fd5b505afa158015610489573d6000803e3d6000fd5b505050506040513d601f19601f820116820180604052508101906104ad9190611062565b6104b7919061108f565b1115806105725750600454600854600660009054906101000a900473ffffffffffffffffffffffffffffffffffffffff1673ffffffffffffffffffffffffffffffffffffffff166318160ddd6040518163ffffffff1660e01b815260040160206040518083038186803b15801561052d57600080fd5b505afa158015610541573d6000803e3d6000fd5b505050506040513d601f19601f820116820180604052508101906105659190611062565b61056f919061108f565b11155b6105b1576040517f08c379a00000000000000000000000000000000000000000000000000000000081526004016105a890611157565b60405180910390fd5b600a60003373ffffffffffffffffffffffffffffffffffffffff1673ffffffffffffffffffffffffffffffffffffffff16815260200190815260200160002054421015610633576040517f08c379a000000000000000000000000000000000000000000000000000000000815260040161062a9061120f565b60405180910390fd5b60095442610641919061108f565b600a60003373ffffffffffffffffffffffffffffffffffffffff1673ffffffffffffffffffffffffffffffffffffffff1681526020019081526020016000208190555060008160ff16141561083d576000600560009054906101000a900473ffffffffffffffffffffffffffffffffffffffff1673ffffffffffffffffffffffffffffffffffffffff167f40c10f19c047ae7dfa66d6312b683d2ea3dfbcb4159e96b967c5f4b0a86f28423360075460405160240161070192919061122f565b604051602081830303815290604052907bffffffffffffffffffffffffffffffffffffffffffffffffffffffff19166020820180517bffffffffffffffffffffffffffffffffffffffffffffffffffffffff838183161783525050505060405161076b91906112d2565b6000604051808303816000865af19150503d80600081146107a8576040519150601f19603f3d011682016040523d82523d6000602084013e6107ad565b606091505b50509050806107f1576040517f08c379a00000000000000000000000000000000000000000000000000000000081526004016107e89061135b565b60405180910390fd5b6007543373ffffffffffffffffffffffffffffffffffffffff167f33ad5d6b2a46b5457e0d36286a2686a0390b0821dedbbdf8dcdcda64f4782c6860405160405180910390a3506109e6565b6000600660009054906101000a900473ffffffffffffffffffffffffffffffffffffffff1673ffffffffffffffffffffffffffffffffffffffff167f40c10f19c047ae7dfa66d6312b683d2ea3dfbcb4159e96b967c5f4b0a86f2842336008546040516024016108ae92919061122f565b604051602081830303815290604052907bffffffffffffffffffffffffffffffffffffffffffffffffffffffff19166020820180517bffffffffffffffffffffffffffffffffffffffffffffffffffffffff838183161783525050505060405161091891906112d2565b6000604051808303816000865af19150503d8060008114610955576040519150601f19603f3d011682016040523d82523d6000602084013e61095a565b606091505b505090508061099e576040517f08c379a00000000000000000000000000000000000000000000000000000000081526004016109959061135b565b60405180910390fd5b6007543373ffffffffffffffffffffffffffffffffffffffff167f33ad5d6b2a46b5457e0d36286a2686a0390b0821dedbbdf8dcdcda64f4782c6860405160405180910390a3505b6109ee610c0d565b50565b6109f9610a7b565b600073ffffffffffffffffffffffffffffffffffffffff168173ffffffffffffffffffffffffffffffffffffffff161415610a69576040517f08c379a0000000000000000000000000000000000000000000000000000000008152600401610a60906113ed565b60405180910390fd5b610a7281610af9565b50565b60085481565b610a83610c16565b73ffffffffffffffffffffffffffffffffffffffff16610aa16102e6565b73ffffffffffffffffffffffffffffffffffffffff1614610af7576040517f08c379a0000000000000000000000000000000000000000000000000000000008152600401610aee90611459565b60405180910390fd5b565b60008060009054906101000a900473ffffffffffffffffffffffffffffffffffffffff169050816000806101000a81548173ffffffffffffffffffffffffffffffffffffffff021916908373ffffffffffffffffffffffffffffffffffffffff1602179055508173ffffffffffffffffffffffffffffffffffffffff168173ffffffffffffffffffffffffffffffffffffffff167f8be0079c531659141344cd1fd0a4f28419497f9722a3daafe3b4186f6b6457e060405160405180910390a35050565b60026001541415610c03576040517f08c379a0000000000000000000000000000000000000000000000000000000008152600401610bfa906114c5565b60405180910390fd5b6002600181905550565b60018081905550565b600033905090565b6000819050919050565b610c3181610c1e565b82525050565b6000602082019050610c4c6000830184610c28565b92915050565b600080fd5b610c6081610c1e565b8114610c6b57600080fd5b50565b600081359050610c7d81610c57565b92915050565b600060208284031215610c9957610c98610c52565b5b6000610ca784828501610c6e565b91505092915050565b600073ffffffffffffffffffffffffffffffffffffffff82169050919050565b6000819050919050565b6000610cf5610cf0610ceb84610cb0565b610cd0565b610cb0565b9050919050565b6000610d0782610cda565b9050919050565b6000610d1982610cfc565b9050919050565b610d2981610d0e565b82525050565b6000602082019050610d446000830184610d20565b92915050565b6000610d5582610cb0565b9050919050565b610d6581610d4a565b82525050565b6000602082019050610d806000830184610d5c565b92915050565b600060ff82169050919050565b610d9c81610d86565b8114610da757600080fd5b50565b600081359050610db981610d93565b92915050565b600060208284031215610dd557610dd4610c52565b5b6000610de384828501610daa565b91505092915050565b610df581610d4a565b8114610e0057600080fd5b50565b600081359050610e1281610dec565b92915050565b600060208284031215610e2e57610e2d610c52565b5b6000610e3c84828501610e03565b91505092915050565b7f4e487b7100000000000000000000000000000000000000000000000000000000600052601160045260246000fd5b6000610e7f82610c1e565b9150610e8a83610c1e565b9250817fffffffffffffffffffffffffffffffffffffffffffffffffffffffffffffffff0483118215151615610ec357610ec2610e45565b5b828202905092915050565b600061ffff82169050919050565b6000610ee782610ece565b9150610ef283610ece565b92508161ffff0483118215151615610f0d57610f0c610e45565b5b828202905092915050565b600082825260208201905092915050565b7f496e636f727265637420746f6b656e496420666f7220746f6b656e206772616e60008201527f7420726571756573740000000000000000000000000000000000000000000000602082015250565b6000610f85602983610f18565b9150610f9082610f29565b604082019050919050565b60006020820190508181036000830152610fb481610f78565b9050919050565b7f52657175657374206d757374206e6f74206f726967696e6174652066726f6d2060008201527f61207a65726f206163636f756e74000000000000000000000000000000000000602082015250565b6000611017602e83610f18565b915061102282610fbb565b604082019050919050565b600060208201905081810360008301526110468161100a565b9050919050565b60008151905061105c81610c57565b92915050565b60006020828403121561107857611077610c52565b5b60006110868482850161104d565b91505092915050565b600061109a82610c1e565b91506110a583610c1e565b9250827fffffffffffffffffffffffffffffffffffffffffffffffffffffffffffffffff038211156110da576110d9610e45565b5b828201905092915050565b7f496e76616c696420416d6f756e742e20457863656564696e6720746f74616c2060008201527f737570706c7920697320756e61636365707461626c6500000000000000000000602082015250565b6000611141603683610f18565b915061114c826110e5565b604082019050919050565b6000602082019050818103600083015261117081611134565b9050919050565b7f496e73756666696369656e742074696d6520656c61707365642073696e63652060008201527f6c617374207769746864726177616c202d2074727920616761696e206c61746560208201527f722e000000000000000000000000000000000000000000000000000000000000604082015250565b60006111f9604283610f18565b915061120482611177565b606082019050919050565b60006020820190508181036000830152611228816111ec565b9050919050565b60006040820190506112446000830185610d5c565b6112516020830184610c28565b9392505050565b600081519050919050565b600081905092915050565b60005b8381101561128c578082015181840152602081019050611271565b8381111561129b576000848401525b50505050565b60006112ac82611258565b6112b68185611263565b93506112c681856020860161126e565b80840191505092915050565b60006112de82846112a1565b915081905092915050565b7f54686520617474656d707420746f206d696e7420746f6b656e7320656e64656460008201527f20696e206661696c757265000000000000000000000000000000000000000000602082015250565b6000611345602b83610f18565b9150611350826112e9565b604082019050919050565b6000602082019050818103600083015261137481611338565b9050919050565b7f4f776e61626c653a206e6577206f776e657220697320746865207a65726f206160008201527f6464726573730000000000000000000000000000000000000000000000000000602082015250565b60006113d7602683610f18565b91506113e28261137b565b604082019050919050565b60006020820190508181036000830152611406816113ca565b9050919050565b7f4f776e61626c653a2063616c6c6572206973206e6f7420746865206f776e6572600082015250565b6000611443602083610f18565b915061144e8261140d565b602082019050919050565b6000602082019050818103600083015261147281611436565b9050919050565b7f5265656e7472616e637947756172643a207265656e7472616e742063616c6c00600082015250565b60006114af601f83610f18565b91506114ba82611479565b602082019050919050565b600060208201905081810360008301526114de816114a2565b905091905056fea26469706673582212209352af935c64baf1b3e69b499efc4530972e965eb29e341382e914753731f8d364736f6c63430008090033",
  "immutableReferences": {},
  "source": "// SPDX-License-Identifier: MIT\npragma solidity ^0.8.9;\n\nimport \"@openzeppelin/contracts/access/Ownable.sol\";\nimport \"@openzeppelin/contracts/token/ERC20/ERC20.sol\";\nimport \"@openzeppelin/contracts/security/ReentrancyGuard.sol\";\n\ncontract FaucetV2 is Ownable, ReentrancyGuard {\n    address contractOwner;\n    uint256 public agixMaxSupply;\n    uint256 public rejuveMaxSupply;\n\n    IERC20 public agixToken;\n    IERC20 public rejuveToken;\n\n    /**\n     * @dev hangeable amount for mint.\n     *\n     * Default: 50 tokens\n     *  \n     */\n    uint256 public agixWithdrawalAmount = 50 * (10**8);\n    uint256 public rejuveWithdrawalAmount = 50 * (10**6);\n    \n    // Default cooling time\n    uint256 public lockTime = 1 hours;\n\n    bytes4 private constant MINTER = bytes4(keccak256(\"mint(address,uint256)\"));\n\n    event Distribution(address indexed to, uint256 indexed amount);\n\n    mapping(address => uint256) nextAccessTime; \n\n    constructor(address _agixTokenAddress, address _rejuveTokenAddress) {\n        contractOwner = msg.sender;\n\n        agixMaxSupply = 1000000000 * (10**8);\n        rejuveMaxSupply = 1000000000 * (10**6);\n\n        agixToken = IERC20(_agixTokenAddress);\n        rejuveToken = IERC20(_rejuveTokenAddress);\n    }\n\n    /**\n     * @dev `tokenId` for identify token for send.\n     *\n     * `0` - SingularityNet Token\n     * `1` - Rujuve Token\n     * \n     */\n    function requestTokens(uint8 _tokenId) public nonReentrant {\n        require(\n            _tokenId == 0 || _tokenId == 1,\n            \"Incorrect tokenId for token grant request\"\n        );\n        require(\n            msg.sender != address(0),\n            \"Request must not originate from a zero account\"\n        );\n        require(\n            agixToken.totalSupply() + agixWithdrawalAmount <= agixMaxSupply ||\n            rejuveToken.totalSupply() + rejuveWithdrawalAmount <= rejuveMaxSupply,\n            \"Invalid Amount. Exceeding total supply is unacceptable\"\n        );\n        require(\n            block.timestamp >= nextAccessTime[msg.sender],\n            \"Insufficient time elapsed since last withdrawal - try again later.\"\n        );\n\n        nextAccessTime[msg.sender] = block.timestamp + lockTime;\n\n        if (_tokenId == 0) {\n            (bool success, ) = address(agixToken).call(abi.encodeWithSelector(MINTER, msg.sender, agixWithdrawalAmount));\n            require(\n                success,\n                \"The attempt to mint tokens ended in failure\"\n            );\n            emit Distribution(msg.sender, agixWithdrawalAmount);\n        } else {\n            (bool success, ) = address(rejuveToken).call(abi.encodeWithSelector(MINTER, msg.sender, rejuveWithdrawalAmount));\n            require(\n                success,\n                \"The attempt to mint tokens ended in failure\"\n            );\n            emit Distribution(msg.sender, agixWithdrawalAmount);\n        }\n    }\n\n    /**\n     * @dev Setting Withdrawal Amount.\n     * \n     * @dev `amount` amount of withdrawal tokens.\n     * \n     */\n    function setWithdrawalAmount(uint256 amount) public onlyOwner {\n        agixWithdrawalAmount = amount * (10**8);\n        rejuveWithdrawalAmount = amount * (10**6);\n    }\n\n    /**\n     * @dev Setting the cooling time.\n     * \n     */\n    function setLockTime(uint8 amount) public onlyOwner {\n        lockTime = amount * 1 hours;\n    }\n}",
  "sourcePath": "/Users/ajaysahu/Documents/sold/faucet/contracts/FaucetV2.sol",
  "compiler": {
    "name": "solc",
    "version": "0.8.9+commit.e5eed63a.Emscripten.clang"
  },
  "schemaVersion": "3.4.16",
  "updatedAt": "2023-10-12T11:29:26.780Z",
  "networkType": "ethereum",
  "devdoc": {
    "kind": "dev",
    "methods": {
      "owner()": {
        "details": "Returns the address of the current owner."
      },
      "renounceOwnership()": {
        "details": "Leaves the contract without owner. It will not be possible to call `onlyOwner` functions. Can only be called by the current owner. NOTE: Renouncing ownership will leave the contract without an owner, thereby disabling any functionality that is only available to the owner."
      },
      "requestTokens(uint8)": {
        "details": "`tokenId` for identify token for send. `0` - SingularityNet Token `1` - Rujuve Token "
      },
      "setLockTime(uint8)": {
        "details": "Setting the cooling time. "
      },
      "setWithdrawalAmount(uint256)": {
        "details": "Setting Withdrawal Amount. `amount` amount of withdrawal tokens. "
      },
      "transferOwnership(address)": {
        "details": "Transfers ownership of the contract to a new account (`newOwner`). Can only be called by the current owner."
      }
    },
    "stateVariables": {
      "agixWithdrawalAmount": {
        "details": "hangeable amount for mint. Default: 50 tokens  "
      }
    },
    "version": 1
  },
  "userdoc": {
    "kind": "user",
    "methods": {},
    "version": 1
  }
}